{
  "_format": "hh-sol-artifact-1",
  "contractName": "CanopyVault",
  "sourceName": "contracts/CanopyVault.sol",
  "abi": [
    {
      "inputs": [],
      "stateMutability": "nonpayable",
      "type": "constructor"
    },
    {
      "anonymous": false,
      "inputs": [
        {
          "indexed": false,
          "internalType": "address",
          "name": "from",
          "type": "address"
        },
        {
          "indexed": false,
          "internalType": "uint256",
          "name": "amount",
          "type": "uint256"
        },
        {
          "indexed": false,
          "internalType": "contract IERC20",
          "name": "token",
          "type": "address"
        }
      ],
      "name": "Deposit",
      "type": "event"
    },
    {
      "inputs": [
        {
          "internalType": "uint256",
          "name": "amount",
          "type": "uint256"
        },
        {
          "internalType": "contract IERC20",
          "name": "token",
          "type": "address"
        }
      ],
      "name": "bridgeToken",
      "outputs": [],
      "stateMutability": "nonpayable",
      "type": "function"
    },
    {
      "inputs": [],
      "name": "owner",
      "outputs": [
        {
          "internalType": "address",
          "name": "",
          "type": "address"
        }
      ],
      "stateMutability": "view",
      "type": "function"
    }
  ],
  "bytecode": "0x608060405234801561001057600080fd5b50336000806101000a81548173ffffffffffffffffffffffffffffffffffffffff021916908373ffffffffffffffffffffffffffffffffffffffff1602179055506102c8806100606000396000f3fe608060405234801561001057600080fd5b50600436106100365760003560e01c80638da5cb5b1461003b578063d1c387d714610059575b600080fd5b610043610075565b6040516100509190610119565b60405180910390f35b610073600480360381019061006e91906101ad565b610099565b005b60008054906101000a900473ffffffffffffffffffffffffffffffffffffffff1681565b7fe31c7b8d08ee7db0afa68782e1028ef92305caeea8626633ad44d413e30f6b2f3383836040516100cc9392919061025b565b60405180910390a15050565b600073ffffffffffffffffffffffffffffffffffffffff82169050919050565b6000610103826100d8565b9050919050565b610113816100f8565b82525050565b600060208201905061012e600083018461010a565b92915050565b600080fd5b6000819050919050565b61014c81610139565b811461015757600080fd5b50565b60008135905061016981610143565b92915050565b600061017a826100f8565b9050919050565b61018a8161016f565b811461019557600080fd5b50565b6000813590506101a781610181565b92915050565b600080604083850312156101c4576101c3610134565b5b60006101d28582860161015a565b92505060206101e385828601610198565b9150509250929050565b6101f681610139565b82525050565b6000819050919050565b600061022161021c610217846100d8565b6101fc565b6100d8565b9050919050565b600061023382610206565b9050919050565b600061024582610228565b9050919050565b6102558161023a565b82525050565b6000606082019050610270600083018661010a565b61027d60208301856101ed565b61028a604083018461024c565b94935050505056fea2646970667358221220e43eb959402622fed53c3dc37712ac055ed75a7aaa66cbe22c25312789fb433864736f6c634300080b0033",
  "linkReferences": {},
  "deployedLinkReferences": {}
}